{
  "contractName": "lottery_10_users",
  "abi": [
    {
      "constant": false,
      "inputs": [],
      "name": "join",
      "outputs": [],
      "payable": true,
      "stateMutability": "payable",
      "type": "function"
    }
  ],
  "bytecode": "0x60806040526000600a60006101000a81548160ff021916908360ff1602179055506000600b5534801561003157600080fd5b506103a5806100416000396000f3fe60806040526004361061001e5760003560e01c8063b688a36314610023575b600080fd5b61002b61002d565b005b67016345785d8a0000341461004157600080fd5b600a8060009054906101000a900460ff1660ff161061005f57600080fd5b61006833610124565b61007157600080fd5b336000600a60009054906101000a900460ff1660ff16600a811061009157fe5b0160006101000a81548173ffffffffffffffffffffffffffffffffffffffff021916908373ffffffffffffffffffffffffffffffffffffffff1602179055506001600a60008282829054906101000a900460ff160192506101000a81548160ff021916908360ff160217905550600a8060009054906101000a900460ff1660ff161415610122576101206101b8565b505b565b6000806000905060008090505b600a8110156101ae57600081600a811061014757fe5b0160009054906101000a900473ffffffffffffffffffffffffffffffffffffffff1673ffffffffffffffffffffffffffffffffffffffff168473ffffffffffffffffffffffffffffffffffffffff1614156101a157600191505b8080600101915050610131565b5080915050919050565b6000600a8060009054906101000a900460ff1660ff16146101d857600080fd5b6000806101e36102a5565b600a81106101ed57fe5b0160009054906101000a900473ffffffffffffffffffffffffffffffffffffffff16905060003090508173ffffffffffffffffffffffffffffffffffffffff166108fc8273ffffffffffffffffffffffffffffffffffffffff16319081150290604051600060405180830381858888f19350505050158015610273573d6000803e3d6000fd5b506000806102819190610338565b6000600a60006101000a81548160ff021916908360ff160217905550819250505090565b600080600a4233600b54604051602001808481526020018373ffffffffffffffffffffffffffffffffffffffff1673ffffffffffffffffffffffffffffffffffffffff1660601b815260140182815260200193505050506040516020818303038152906040528051906020012060001c8161031c57fe5b069050600b600081548092919060010191905055508091505090565b5080600a0190610348919061034b565b50565b61036d91905b80821115610369576000816000905550600101610351565b5090565b9056fea265627a7a72315820abc106cefb3999bf7cc30e5809e96824079606013d1de6a7132d5a24ccff2ac364736f6c63430005100032",
  "source": "pragma solidity >= 0.4.21 < 0.6.0;\n\ncontract lottery_10_users {\n    address[10] private participants;\n    uint8 participantsCount = 0;\n    uint randNonce = 0;\n\n    function join() public payable {\n        require(msg.value == 0.1 ether);\n        require(participantsCount < 10);\n        require(joinedAlready(msg.sender));\n        participants[participantsCount] = msg.sender;\n        participantsCount += 1;\n        if(participantsCount == 10) {\n            selectWinner();\n        }\n    }\n\n    function joinedAlready(address _participant) private view returns (bool) {\n        bool containsParticipant = false;\n        for(uint i = 0; i < participants.length; i++) {\n            if (_participant == participants[i]) {\n                containsParticipant = true;\n            }\n        }\n        return containsParticipant;\n    }\n\n    function selectWinner() private returns (address) {\n        require(participantsCount == 10);\n        address winner = participants[randomNumber()];\n        address thisAddr = address(this);\n        address(uint160(winner)).transfer(address(uint160(thisAddr)).balance);\n        delete participants;\n        participantsCount = 0;\n        return winner;\n    }\n\n    function randomNumber() private returns(uint) {\n        uint rand = uint(keccak256(abi.encodePacked(now, msg.sender, randNonce))) % 10;\n        randNonce++;\n        return rand;\n    }\n}",
  "sourcePath": "/home/centos/github/Smart-Contracts-Challenge/contracts/04_lottery_10_users.sol",
  "compiler": {
    "name": "solc",
    "version": "0.5.16+commit.9c3226ce.Emscripten.clang"
  },
  "schemaVersion": "3.3.2",
  "updatedAt": "2020-11-30T08:43:54.213Z",
  "networkType": "ethereum",
  "devdoc": {
    "methods": {}
  },
  "userdoc": {
    "methods": {}
  }
}